{
  "contractName": "EthSwap",
  "abi": [
    {
      "constant": true,
      "inputs": [],
      "name": "name",
      "outputs": [
        {
          "name": "",
          "type": "string"
        }
      ],
      "payable": false,
      "stateMutability": "view",
      "type": "function",
      "signature": "0x06fdde03"
    },
    {
      "constant": true,
      "inputs": [],
      "name": "rate",
      "outputs": [
        {
          "name": "",
          "type": "uint256"
        }
      ],
      "payable": false,
      "stateMutability": "view",
      "type": "function",
      "signature": "0x2c4e722e"
    },
    {
      "constant": true,
      "inputs": [],
      "name": "token",
      "outputs": [
        {
          "name": "",
          "type": "address"
        }
      ],
      "payable": false,
      "stateMutability": "view",
      "type": "function",
      "signature": "0xfc0c546a"
    },
    {
      "inputs": [
        {
          "name": "_token",
          "type": "address"
        }
      ],
      "payable": false,
      "stateMutability": "nonpayable",
      "type": "constructor",
      "signature": "constructor"
    },
    {
      "anonymous": false,
      "inputs": [
        {
          "indexed": false,
          "name": "account",
          "type": "address"
        },
        {
          "indexed": false,
          "name": "token",
          "type": "address"
        },
        {
          "indexed": false,
          "name": "amount",
          "type": "uint256"
        },
        {
          "indexed": false,
          "name": "rate",
          "type": "uint256"
        }
      ],
      "name": "TokenPurchased",
      "type": "event",
      "signature": "0x8daf503382665d950e449b86172be5222275c90f4ddf69c29fdaa8237a562a6d"
    },
    {
      "constant": false,
      "inputs": [],
      "name": "buyTokens",
      "outputs": [],
      "payable": true,
      "stateMutability": "payable",
      "type": "function",
      "signature": "0xd0febe4c"
    }
  ],
  "bytecode": "0x60806040526040805190810160405280601881526020017f4574685377617020496e7374616e742045786368616e676500000000000000008152506000908051906020019061004f9291906100d9565b50606460015534801561006157600080fd5b506040516020806106e28339810180604052602081101561008157600080fd5b810190808051906020019092919050505080600260006101000a81548173ffffffffffffffffffffffffffffffffffffffff021916908373ffffffffffffffffffffffffffffffffffffffff1602179055505061017e565b828054600181600116156101000203166002900490600052602060002090601f016020900481019282601f1061011a57805160ff1916838001178555610148565b82800160010185558215610148579182015b8281111561014757825182559160200191906001019061012c565b5b5090506101559190610159565b5090565b61017b91905b8082111561017757600081600090555060010161015f565b5090565b90565b6105558061018d6000396000f3fe608060405260043610610062576000357c0100000000000000000000000000000000000000000000000000000000900463ffffffff16806306fdde03146100675780632c4e722e146100f7578063d0febe4c14610122578063fc0c546a1461012c575b600080fd5b34801561007357600080fd5b5061007c610183565b6040518080602001828103825283818151815260200191508051906020019080838360005b838110156100bc5780820151818401526020810190506100a1565b50505050905090810190601f1680156100e95780820380516001836020036101000a031916815260200191505b509250505060405180910390f35b34801561010357600080fd5b5061010c610221565b6040518082815260200191505060405180910390f35b61012a610227565b005b34801561013857600080fd5b50610141610503565b604051808273ffffffffffffffffffffffffffffffffffffffff1673ffffffffffffffffffffffffffffffffffffffff16815260200191505060405180910390f35b60008054600181600116156101000203166002900480601f0160208091040260200160405190810160405280929190818152602001828054600181600116156101000203166002900480156102195780601f106101ee57610100808354040283529160200191610219565b820191906000526020600020905b8154815290600101906020018083116101fc57829003601f168201915b505050505081565b60015481565b60003460015402905080600260009054906101000a900473ffffffffffffffffffffffffffffffffffffffff1673ffffffffffffffffffffffffffffffffffffffff166370a08231306040518263ffffffff167c0100000000000000000000000000000000000000000000000000000000028152600401808273ffffffffffffffffffffffffffffffffffffffff1673ffffffffffffffffffffffffffffffffffffffff16815260200191505060206040518083038186803b1580156102ec57600080fd5b505afa158015610300573d6000803e3d6000fd5b505050506040513d602081101561031657600080fd5b81019080805190602001909291905050501015151561033457600080fd5b600260009054906101000a900473ffffffffffffffffffffffffffffffffffffffff1673ffffffffffffffffffffffffffffffffffffffff1663a9059cbb33836040518363ffffffff167c0100000000000000000000000000000000000000000000000000000000028152600401808373ffffffffffffffffffffffffffffffffffffffff1673ffffffffffffffffffffffffffffffffffffffff16815260200182815260200192505050602060405180830381600087803b1580156103f957600080fd5b505af115801561040d573d6000803e3d6000fd5b505050506040513d602081101561042357600080fd5b8101908080519060200190929190505050507f8daf503382665d950e449b86172be5222275c90f4ddf69c29fdaa8237a562a6d33600260009054906101000a900473ffffffffffffffffffffffffffffffffffffffff1683600154604051808573ffffffffffffffffffffffffffffffffffffffff1673ffffffffffffffffffffffffffffffffffffffff1681526020018473ffffffffffffffffffffffffffffffffffffffff1673ffffffffffffffffffffffffffffffffffffffff16815260200183815260200182815260200194505050505060405180910390a150565b600260009054906101000a900473ffffffffffffffffffffffffffffffffffffffff168156fea165627a7a723058205224e83ab97f898f63abd8d39b3185076fe4b940d6a538c623bf67ff3857a52b0029",
  "source": "pragma solidity ^0.5.0;\r\nimport \"./Token.sol\";\r\n\r\ncontract EthSwap {\r\n    // declare contract name\r\n    string public name = \"EthSwap Instant Exchange\";\r\n    // declare rate\r\n    uint256 public rate = 100;\r\n    // declare token\r\n    Token public token;\r\n\r\n    event TokenPurchased(\r\n        address account,\r\n        address token,\r\n        uint256 amount,\r\n        uint256 rate\r\n    );\r\n\r\n    constructor(Token _token) public {\r\n        token = _token;\r\n    }\r\n\r\n    function buyTokens() public payable {\r\n        uint256 tokenAmount = rate * msg.value;\r\n        require(token.balanceOf(address(this)) >= tokenAmount);\r\n        token.transfer(msg.sender, tokenAmount);\r\n        // emit event TokenPurchased\r\n        emit TokenPurchased(msg.sender, address(token), tokenAmount, rate);\r\n    }\r\n}\r\n",
  "sourcePath": "E:/playground/blockhain-development/ethswap-instant-exchange/src/contracts/EthSwap.sol",
  "compiler": {
    "name": "solc",
    "version": "0.5.0+commit.1d4f565a.Emscripten.clang"
  },
  "schemaVersion": "3.0.2",
  "updatedAt": "2022-02-15T23:52:44.670Z",
  "devdoc": {
    "methods": {}
  },
  "userdoc": {
    "methods": {}
  }
}